:040000000EEF00F00F
:040008004DEF09F0BF
:10001800BAEF07F024EF05F0500E02019A6FC30EF5
:100028009B6F000E9C6F000E9D6F09D09A07000E03
:100038009B5B9C5B9D5B00F000F000F0BC840201C0
:100048009A519B119C119D11D8A4F0D7B1EC0AF0DC
:10005800D28ED28C0AEC0BF053EC0BF037EC0BF091
:10006800BD8A3901E5513F0B8009E56FCEEC0BF0F5
:10007800BD9ABC92BC94BA88010E0001CC6F8DEC7D
:1000880005F03901E5513F0B8009E56F0400A5EC47
:1000980009F00009D8B4F0D7000E00016D6F000E0A
:1000A8006E6F000E6F6F000E706F3901A3976000BE
:1000B800EBFFE8FF010AD8A4A5EF04F0BD8ABC84D1
:1000C80080EF04F06000FCFF0FF020EEFEF3DF503D
:1000D80088EC0AF00FC09FF210C0A0F2610004F093
:1000E8000FF021EE00F0DF5088EC0AF00FC0BCF2F0
:1000F80010C0BDF20201BD5103E1210EBC5DD8B0B4
:1001080091D0A05103E1200E9F5DD8B07ED0BC51A4
:100118009F250001D96F0201BD51A0210001DA6FAE
:10012800FF0ED925DB6FFF0EDA21DC6FDC516DE1A4
:10013800200EDB5DD8B069D0BCC2D9F0070ED91744
:10014800D8A405D00201BC39E8461F0B0AD0BCC2AE
:10015800D9F0D890D933D890D933D890D933D92970
:100168000201B56F000EAE6F000EAD6F0ED002012A
:10017800AD51650FD96EDA6AAD51CE0FE16EE26A04
:100188006F007FFFE7FFAD4BAE2BB5510001D96F74
:10019800DA6BD9510201AD5DAE51800A0001DB6F07
:1001A800DA51800ADB59D8A0E2D7BCC2D9F0070ED1
:1001B800D917D8B422D00201B551CD0FD96EDA6A59
:1001C800B551CD0FE16EE26AE7500001D96FBCC2AC
:1001D800DAF0070EDA17DA510808DB6FFF0EDC6F6A
:1001E800000EDD6FDB2B03D0DD35DD33DC33DB2F99
:1001F800FBD70001DC51D915DF6EB5C2D2F0CE0EA7
:10020800D36FCC512EEC09F09CD36000F0FFD9F0ED
:100218000001D951D26FD36B020ED46F010E19ECC5
:100228000BF08FD36000F0FFD9F00001D951D26FE5
:10023800D36B030ED46F010E19EC0BF082D3600060
:10024800FCFF0FF020EEFEF3DF5088EC0AF00FC041
:10025800B6F210C0B7F2610004F00FF021EE00F022
:10026800DF5088EC0AF00FC0AFF210C0B0F2020104
:10027800AF51B011D8B404D0B029AF11D8A459D017
:10028800B7514AE1200EB65DD8B046D0B639E84637
:100298001F0BA56F070EB615B66FB76BB029AF1158
:1002A800D8A414D0B6C2D9F0010E0001DA6FD92B48
:1002B80002D0D890DA37D92FFCD70201A551650FA3
:1002C800D96EDA6A0001DA51DF1217D0B6C2D9F056
:1002D800010E0001DA6FD92B02D0D890DA37D92F66
:1002E800FCD70001DA51FF0ADB6F0201A551650F47
:1002F800D96EDA6A0001DB51DF16B6C2D2F0B7C296
:10030800D3F0AFC2D4F0B0C2D5F0010EF2EC09F0D0
:10031800010E0001CD6F15D36000F0FFD9F0000188
:10032800D951D26FD36B020ED46F010E19EC0BF0BA
:1003380008D36000F0FFD9F00001D951D26FD36B18
:10034800030ED46F010E19EC0BF0FBD26000FCFF1A
:100358000FF020EEFEF3DF5088EC0AF00FC0BEF27B
:1003680010C0BFF2610004F00FF021EE00F0DF5082
:1003780088EC0AF00FC0B8F210C0B9F2B8C2D9F0D0
:10038800070E0001D917D8A405D00201B839E846EC
:100398001F0B0AD0B8C2D9F0D890D933D890D93326
:1003A800D890D933D9290201AA6FB95103E1210E96
:1003B800B85DD8B0D1D021EE02F0AA51DE18D8A489
:1003C800CBD0BF5103E1200EBE5DD8B0B8D0B85134
:1003D800BE250001D96F0201B951BF210001DA6FB2
:1003E800FF0ED925DB6FFF0EDA21DC6FDC5103E14C
:1003F800200EDB5DD8B0A3D00201BE39E8461F0B42
:10040800AB6F000EA76F000EA66F6AD0030E020135
:10041800A625D96E040EA721DA6EDF509E6F080E4E
:10042800AC6F50D0070EBE15BE6FBF6BAC5107083E
:100438000001D96F010EDA6FD92B02D0D890DA37C4
:10044800D92FFCD70001DA5102019E150009D8B452
:1004580017D0BEC2D9F0010E0001DA6FD92B02D035
:10046800D890DA37D92FFCD70201AB51650FD96E76
:10047800DA6A0001DA51DF120201BE4BBF2B18D035
:10048800BEC2D9F0010E0001DA6FD92B02D0D89084
:10049800DA37D92FFCD70001DA51FF0ADB6F0201E6
:1004A800AB51650FD96EDA6A0001DB51DF16E4D76C
:1004B800AC51D8A402D0B84BB92B080EBE19BF1145
:1004C800D8B4AB2BB807D8A0B907B82903E1B92924
:1004D800D8B404D0AC07AC29D8A4A4D7A64BA72B72
:1004E800AA510001D96FDA6BD9510201A65DA75153
:1004F800800A0001DB6FDA51800ADB59D8A086D761
:10050800010ECD6F6000FCFF0FF020EEFEF3DF5010
:1005180088EC0AF00FC0D2F010C0D3F0610004F0EC
:100528000FF021EE00F0DF5088EC0AF00FC0D4F095
:1005380010C0D5F00001CC5124EC0AF002D26000C2
:10054800F0FFD9F00001D951D26FD36B020ED46FEE
:10055800010E19EC0BF0F5D16000F0FFD9F00001A5
:10056800D951D26FD36B030ED46F010E19EC0BF077
:10057800E8D1000E0201B46F000EB36F000EA96F30
:10058800000EA86F6000FCFF0FF020EEFEF3DF50B6
:1005980088EC0AF00FC0B3F210C0B4F2610004F0A6
:1005A8000FF021EE00F0DF5088EC0AF00FC0A8F23F
:1005B80010C0A9F2900E0201B35D010EB459D8A083
:1005C8000FD0A851B3250001D96F0201A951B42158
:1005D8000001DA6F940ED95D010EDA59D8A0B1D1B5
:1005E8000201B405D8B025D0A851B3250001D96FB0
:1005F8000201A951B4210001DA6FDA05D8B019D087
:1006080021EE01F0DF50020D6F00CCFFD2F020EE9A
:10061800FFF3DF50D96FDA6BD890D937DA37FD0E90
:10062800D925D36F040EDA21D46F010E82EC07F0BE
:1006380088D16000F0FFD9F00001D951D26FD36B97
:10064800020ED46F010E19EC0BF07BD16000FCFF99
:100658000FF020EEFEF3DF5088EC0AF00FC0A1F295
:1006680010C0A2F2610004F00FF021EE00F0DF509C
:1006780088EC0AF00FC098F210C099F20201A105A7
:10068800010EA259D8A00DD06000F0FFD9F00001EA
:10069800D951D26FD36B020ED46F010E19EC0BF047
:1006A80050D1610000F0A2F0610004F0A3F0000E48
:1006B800E8EC0AF00001A219D8A407D0010EE8EC72
:1006C8000AF00001A319D8B40CD037EC0BF0A2C083
:1006D8000FF0000E46EC08F0A3C00FF0010E46EC38
:1006E80008F0A1C2D2F0A2C2D3F098C2D4F099C245
:1006F800D5F0010ED9EC09F0010E0001E16F21D10E
:10070800000E0201B26F000EB16F000EA46F000E52
:10071800A36F000EBB6F000EBA6F900EB15D010E95
:10072800B259D8A00FD0A351B1250001D96F020149
:10073800A451B2210001DA6F940ED95D010EDA5985
:10074800D8A0FFD00201B205D8B0B1D0A351B125CD
:100758000001D96F0201A451B2210001DA6FDA0554
:10076800D8B0A5D0000E0201BB6F000EBA6F6DD0D5
:10077800D890BA35D96EBB35DA6E040ED926040E78
:10078800DA22DF500F6ED890BA35D96EBB35DA6EE3
:10079800030ED926040EDA22DF5088EC0AF0600036
:1007A800FCFFD9F00001D9510201BA250001DA6F26
:1007B800000E0201BB210001DB6FD890DA37DB376E
:1007C800FD0EDA25D96E040EDB21DA6E60003FF0EB
:1007D800DEFF600043F0DDFF000ED96F030EDA6F15
:1007E8006000FCFFDBF0DB51D927000EDA230201A1
:1007F800BA510001D925D96E0201BB510001DA2195
:10080800DA6E6000FCFFDCF0DC510201BA25000161
:10081800DD6F000E0201BB210001DE6FD890DD37CD
:10082800DE37FD0EDD25E16E040EDE21E26E6F007F
:1008380098FF0FF06F0094FF10F0000E116E9DEC02
:100848000AF0DF6E0201BA4BBB2B21EE01F0DF503C
:100858000001D96FDA6BD9510201BA5D0001DA5192
:100868000201BB59D8A084D76000FCFF0FF020EE2E
:10087800FEF3DF5088EC0AF00FC0D2F010C0D3F0BE
:10088800610004F00FF021EE00F0DF5088EC0AF070
:10089800D8900F340001D46F1034D56FCC510BECC5
:1008A8000AF0000E0201966F030E976F25D76000BD
:1008B800F0FFD9F00001D951D26FD36B020ED46F7B
:1008C800010E19EC0BF03DD06000F0FFD9F0D951C2
:1008D800D26FD36B010ED46F010E19EC0BF031D02F
:1008E8006000F0FFD9F0D951D26FD36B010ED46FED
:1008F800010E19EC0BF025D020EEFCF3DF500001BF
:10090800D96FDA6BDA51000AD8A4EAD7D951010AAB
:10091800D8B466EF00F0030AD8B4D6D7010AD8B421
:1009280028D6070AD8B4D0D7010AD8B488D4030A7D
:10093800D8B48CD6090AD8B409D51F0AD8B4E0D6D9
:10094800CFD739019387BD9ABC9440EF00F0116E60
:10095800D80E1124D96EDA6A010EDA22DF50126E2F
:1009680012C00FF0010E0F160F46BA500F18FD0BEC
:100978000F18BA6E12C00FF0D8900F32010E0F1672
:100988000F460F460F46BA500F18F70B0F18BA6EDE
:1009980012C00FF0D8900F32D8900F32010E0F16F8
:1009A8000F3A0F46BA500F18DF0B0F18BA6E12C065
:1009B8000FF0D8900F32D8900F32D8900F32010E26
:1009C8000F160F46BE500F18FD0B0F18BE6E12C043
:1009D8000FF00F3A0F0E0F16010E0F160F460F46A7
:1009E800BE500F18FB0B0F18BE6E12C00FF0050E8D
:1009F800106ED8900F32102EFCD7010E0F160F462E
:100A08000F46BA500F18FB0B0F18BA6E12C00FF032
:100A1800060E106ED8900F32102EFCD7010E0F164E
:100A28000F3ABA500F18EF0B0F18BA6E0F6A12AEC2
:100A380001D00F2ABE500F18FE0B0F18BE6E120001
:100A4800E58EE59C2C0EF66E170EF76E000EF86E0E
:100A580000EED8F110EE0AF009006F00D7FFEEFFA4
:100A6800E550E150F9E1A00EF66E170EF76E000E94
:100A7800F86E09006F00D4FFDFF009006F00D4FFA3
:100A8800E0F009006F00D4FFE1F0980EF66E170E43
:100A9800F76E000EF86E00EE4EF010EE04F009004E
:100AA8006F00D7FFEEFFE550E150F9E100EEFAF3F1
:100AB80010EEE3F2EE6AE550E150FCE1E250FAE1B3
:100AC80000EE00F3FA0EEE6AE806FDE100EE00F231
:100AD800960EEE6AE806FDE100EE00F1D80EEE6A29
:100AE800E806FDE100EE60F0720EEE6AE806FDE150
:100AF80000EE2CF0220EEE6AE806FDE1080ED56E37
:100B0800000ED66E000ED76E000EF86E000110EFC4
:100B180000F044D0010E916F92C01BF093C01CF0FE
:100B28009BEC06F01200BB96BB88BB8ABA80615169
:100B3800ABEC04F0000E0001956F020E946F050EE9
:100B4800916F000E496E1200BB86BB98BB8ABA80B3
:100B58006251ABEC04F0000E0001956F030EEED766
:100B6800BB86BB88BB9ABA806351ABEC04F0000E1D
:100B78000001956F040EE2D7BB86BB88BB8ABA908A
:100B88006451ABEC04F0000E0001956F010ED6D74E
:100B98001D0E4964120094C091F012000001915199
:100BA8001F6E206A2050000AD8A412001F50000AA5
:100BB800D8B4B0D7010AD8B4B6D7030AD8B4C4D7C2
:100BC800010AD8B4CDD7070AD8B4D6D7010AD8A411
:100BD8001200DED76F00A0F705F0422A382A4450E9
:100BE800D8A412004350D8A411D02C682D6820EE48
:100BF800FAF3600017F0DFFF432A000E6F00A0FF32
:100C0800FBF3000E6F00A0FFFDF32DD04304D8A422
:100C180007D020EEFCF3600017F0DFFF432A23D053
:100C2800020E4318D8A41FD06000EFFFE8FFFF0AA8
:100C3800D8A404D0FE0E6F00A0FFFBF320EEFBF358
:100C4800DF50036E046AFE0E0324D96E030E0420DF
:100C5800DA6E600017F0DFFF6000EFFFE8FF010FBA
:100C68006F00A0FFFBF3010E67EC0BF0000E000114
:100C7800BB6F000EBA6F05506FEC0AF0010E366EAE
:100C880012003B50D8A412006F0040F70BF0680E1A
:100C98003A24D96EDA6A010EDA2260002FF0DFFFFB
:100CA800650E01016819D8B404D0700E6819D8A46B
:100CB80019D0680E3A24D96EDA6A010EDA22DE28D3
:100CC800D8A40AD0392A030E3918D8A409D0010E9D
:100CD8003B6E000E396E04D0000E396E000E3B6E6E
:100CE8003A2A1200400E6819D8B40CD0210E68199F
:100CF800D8B408D0230E6819D8B404D0260E6819C1
:100D0800D8A410D0680E3A24D96EDA6A010EDA2215
:100D18002A0EDE18D8A4E0D7392A030E3918D8B419
:100D2800D6D7DED7000E396E000E3A6E12001BC001
:100D38001DF01CC01EF01DC016F01EC017F0000EDE
:100D4800196E0A0E186E0DEC09F01650646F000E3D
:100D5800126E0A0E116E1DC00FF01EC010F09FEC2F
:100D680008F00FC016F010C017F0000E196E0A0E2A
:100D7800186E0DEC09F01650636F000E126E640EBB
:100D8800116E1DC00FF01EC010F09FEC08F00FC0D0
:100D980016F010C017F0000E196E0A0E186E0DEC42
:100DA80009F01650626F030E126EE80E116E1DC028
:100DB8000FF01EC010F09FEC08F00FC016F010C026
:100DC80017F0000E196E0A0E186E0DEC09F0165089
:100DD800616F1200000EBE6E000EBD6E000EBA6E80
:100DE800000EBB6E000EBC6E000EC66EC00EC26E4C
:100DF800C70EC36EB90EC46ECF0EC56E400E3A0153
:100E0800706F000E606F000E506F000E806F040E42
:100E1800406F000E716F000E816F000E516F000E53
:100E2800416F000E616F000E5A6F000E5B6F000E6F
:100E38006A6F000E6B6F000E7A6F000E7B6F000EEC
:100E4800826F000E426F000E526F000E626F000E2E
:100E5800726F4369536963697369070E836F4469E5
:100E68005469646974690F0E846F130E166F170E38
:100E7800E56F120039019397000E0F6E170E106E72
:100E8800A0EC0BF0000E3D01EC6F000EED6F000EB4
:100E9800EE6F000EEF6F000EF06F000EF16F300E68
:100EA800F26F800EF36F000EF46F020EF66F070EEE
:100EB800F56F000EF76F000EF86F000EF96F000E59
:100EC800FA6F000E0F6E000E106EAAEC0BF0000EFB
:100ED8000F6E000E106EA5EC0BF0000E0F6E000EDC
:100EE800106EAFEC0BF0000E4A6E000E4D6E000E49
:100EF8004C6E000E4B6E390193871200D76F030EAC
:100F0800256E0001D75128EC0BF00001D25170EC8E
:100F18000BF0000E0001D86F22D060004FF3D9FF0C
:100F2800600053F3DAFF6F0078FFD5F06F0074FFAD
:100F3800D6F0D6C0D5F0D66BD55170EC0BF060006A
:100F48004FF3D9FF600053F3DAFFDF5070EC0BF07A
:100F5800020E0001D327000ED423020ED827D25147
:100F6800D85DD8A0DAD7EAEC07F012006F0060FF6E
:100F78000CF06F00E8FF0DF06F00ECFF0EF0390188
:100F880096B5A6A50DD001D80BD005000001FA6EC4
:100F9800B651FD6EB751FE6EF850FF6EFA50120052
:100FA800390193BFA3AF02D0EBEC08F0390194B13B
:100FB800A4A102D056EC0AF060003BF0FBFF6000F1
:100FC80037F0FAFF600033F0D8FF1100000E256EED
:100FD800000E266E000E276E000E286E2DC02AF019
:100FE8002CC029F02A5070EC0BF0295070EC0BF053
:100FF80010D0010E2526000E26222722282228504E
:101008000DE1A10E255C860E2658010E2758D8B092
:1010180005D088EC0BF00009D8B4EBD7BFEC09F089
:10102800BD9A2C682D681200000E3E01DE6F000E7E
:10103800DF6F000EE06F000EE16F000EE46F000E30
:10104800E56F000EEA6F000EEC6F000EF16F880E70
:10105800F36F130EF46F000EF56F000EF66F000EAF
:10106800F76F000EF96F010EFA6F000EFB6F000E9E
:10107800FC6F000EFD6F000EFE6F3F0EFF6F840EBB
:10108800F86F1200106E000E126E000E116E000E38
:101098003901E56F02D0114A122AE5A306D0300EB5
:1010A800115C750E1258D8A0F6D7300E115C750E6B
:1010B8001258D8B010D0600043F0E0F960003FF05B
:1010C800E3F9E585D29E550EE66FAA0EE66FE58335
:1010D800D28EE595E593E5513F0B8009E56F120047
:1010E800020E4318D8A410D04450D8A40DD02C50C8
:1010F8002D10D8A409D06000EFFFE8FFFE0F6F00A5
:10110800A0FFFBF3010E0CD0020E4318D8A407D0A1
:101118004450D8A404D02C502D10D8A402D0000ECE
:10112800446E2C682D68000E436E000E5EEC0BF0CA
:10113800BFEC09F01200000E156E000E146E11506F
:101148001210D8B41CD0010E136E04D0D8901136EA
:101158001236132A12AEFAD7D89014361536115013
:101168000F5C12501058D8A005D011500F5E1250C5
:10117800105A1480D89012321132132EEDD714C0A1
:101188000FF015C010F01200000EB36E000EB46E12
:10119800030EB56EFE0EB16E700EB06EB0506F00DD
:1011A800C4FE11F0126A11C012F0116A1110000188
:1011B800A66F1250A76F3901A4919481A40E0F6EE7
:1011C800170E106EB4EC0BF0030EB26E1200A39F54
:1011D8006000BFF0B7FF6000BBF0B6FF0001B85178
:1011E800B911D8B40CD001D80AD00500FA6EB8519C
:1011F800FD6EB951FE6EF850FF6EFA5012000001F4
:10120800BA4BBB2B010E8D27000E8E238F23902304
:10121800120018501910D8B418D0010E1A6E04D044
:10122800D890183619361A2A19AEFAD71850165CFB
:1012380019501758D8A004D01850165E1950175ACC
:10124800D890193218321A2EF1D716C016F017C0D6
:1012580017F01200D46F010E256E0001D45128EC4E
:101268000BF00001D25170EC0BF0000E0001D56FAD
:1012780009D0D351D96EDA6ADF5070EC0BF0000157
:10128800D32BD52BD251D55DD8A0F3D7EAEC07F0F4
:1012980012006F00D8FF06F06F00DCFF07F06F0048
:1012A800E0FF08F06F00D4FF09F0390193B7A3A756
:1012B80002D080EC0BF0600027F0F5FF600023F00F
:1012C800F8FF60001FF0F7FF60001BF0F6FF110049
:1012D800600EB96E630EB76EC00EB66EB6506F0074
:1012E800DCFE11F0126A11C012F0116A11102E6E94
:1012F80012502F6EA39F938FA60E0F6E170E106EAF
:10130800B9EC0BF0900EB86E1200216E02D08DEC85
:1013180005F0140E4960FBD7000E236E000E226EF6
:1013280003D00400224A232A3901A3B906D0100E9B
:10133800225C270E2358D8A0F4D7600087F0EAFD76
:101348001200C4EC0AF04450D8A402D0000E1200D7
:1013580020EEFCF3DFAE07D06000F8FFFDF3010ECE
:101368006F00A0FFFBF3000E446E010E516E000EDD
:10137800426E010E1200000E106E000E0F6E0BD0A2
:10138800E8510F4A102A10BE06D0105007E1150E7A
:101398000F5CD8B003D03D01F9B3F2D7000EF96F56
:1013A8003901A39BA397938712002B6E060E256E17
:1013B8002B5028EC0BF00001D35170EC0BF000011E
:1013C800D25170EC0BF00001D55170EC0BF000011C
:1013D800D45170EC0BF0EAEC07F012002B6E050EFE
:1013E800256E2B5028EC0BF00001D35170EC0BF05C
:1013F8000001D25170EC0BF00001D55170EC0BF0EC
:101408000001D45170EC0BF0EAEC07F012002B6EDF
:10141800100E256E2B5028EC0BF00001D35170EC08
:101428000BF00001D25170EC0BF00001D55170ECBB
:101438000BF00001D45170EC0BF0EAEC07F012004D
:101448002B6E0F0E256E2B5028EC0BF00001D3519C
:1014580070EC0BF00001D25170EC0BF00001D5518B
:1014680070EC0BF00001D45170EC0BF0EAEC07F0D3
:1014780012000F6E2D500F18106EF70E1024F66E16
:10148800F76A7E0EF7220800F5502C182D6EF70E1D
:101498001024F66EF76A7D0EF72208006F00D4FF5D
:1014A8002CF01200492AA491A6C00AF0A7C00BF09C
:1014B800D6EC0AF00001A451A511D8B4120001D845
:1014C80012000500FA6EA451FD6EA551FE6EF8508B
:1014D800FF6EFA501200016E2D500118026EF70EC1
:1014E8000224F66EF76A7E0EF7220800F5502C18D3
:1014F8002D6EF70E0224F66EF76A7D0EF7220800AD
:101508006F00D4FF2CF01200156E1550126E116A80
:10151800000E1114136EFF0E1214146E0F501324C4
:10152800166E000E1420176E16C00FF017C010F0BC
:1015380012001150080D6F00CCFF12F00FC013F00D
:1015480010C014F0122A03D0D89014321332122E7D
:10155800FBD71350156E155012008FEC0BF0F9ECF9
:101568000AF0EEEC06F045EC0BF09BEC0BF06CECA3
:1015780009F0C8EC08F018EC08F03EEC07F012008F
:101588003604D8A412004050D8B412000001BB5150
:1015980004E1050EBA5DD8A01200000E366E74EC98
:1015A80008F01200B2A409D0B29060002FF0B1FF89
:1015B80060002BF0B0FFB280120060002FF0B1FF86
:1015C80060002BF0B0FF12000F6E000E3901E56FBE
:1015D80060003FF0E0F9E5816E008CF710F0E5510E
:1015E8003F0B8009E56F10501200000EC06F000E0F
:1015F800C16F000EC26F000EC36F000EC46F000EE5
:10160800C56F000EC66F000EC76F12003D01E8518E
:10161800BFEC09F0000E446E000E436E2C682D6876
:10162800A3979387A695968512002B6E0001D25139
:101638008009256E2B5028EC0BF00001D45170EC7A
:101648000BF0EAEC07F01200266E2C682D68000EED
:10165800446EC8EC0BF0BD8A265070EC0BF0255098
:1016680070EC0BF01200000E916FA351A2C00FF0A6
:10167800106A0FC010F00F6A0F10926F1050936F1E
:101688001200200E3901D96F000EDB6F000EDD6FDE
:10169800020EDF6F000EDE6FDCB11200FDD7000E08
:1016A800E8EC0AF00001A26F010EE8EC0AF0000174
:1016B800A36F12000F6E0F50D8B402D0010E01D0E4
:1016C800000E406E1200016E0150D8B402D0010E17
:1016D80001D0000E406E1200246E245089EC09F0EF
:1016E80024503DEC0AF012003D01E1B7E197E1B367
:1016F800E193BEEC0BF012003D01F9B7F997F9B38D
:10170800F993C3EC0BF012003D01F9AF02D0010EC2
:101718001200000E1200D28A390183878695839FB2
:1017280084911200C0F9A4B0999282F88090160EA4
:101738005B6F070E5C6F12000FC0B4F010C0B5F0FD
:1017480012000FC0B0F010C0B1F012000FC0B2F01C
:1017580010C0B3F012000FC0AEF010C0AFF012000E
:101768000FC0A4F010C0A5F012000FC0B8F010C050
:10177800B9F0120045EC06F03901A6951200EEEC1E
:1017880005F03901A397120039019397A397120026
:0B179800010102015B81120001010150
:0417A400120012001D
:107DF6000000C0C101C30302C2C60607C705C5C449
:107E060004CC0C0DCD0FCFCE0E0ACACB0BC9090878
:107E1600C8D81819D91BDBDA1A1EDEDF1FDD1D1CB8
:107E2600DC14D4D515D71716D6D21213D311D1D048
:107E360010F03031F133F3F23236F6F737F53534E8
:107E4600F43CFCFD3DFF3F3EFEFA3A3BFB39F9F8B8
:107E56003828E8E929EB2B2AEAEE2E2FEF2DEDEC58
:107E66002CE42425E527E7E62622E2E323E1212088
:107E7600E0A06061A163A3A26266A6A767A5656488
:107E8600A46CACAD6DAF6F6EAEAA6A6BAB69A9A8F8
:107E96006878B8B979BB7B7ABABE7E7FBF7DBDBC38
:107EA6007CB47475B577B7B67672B2B373B17170C8
:107EB600B050909151935352929656579755959428
:107EC600549C5C5D9D5F9F9E5E5A9A9B5B99595838
:107ED60098884849894B8B8A4A4E8E8F4F8D4D4CD8
:107EE6008C44848545874746868242438341818008
:107EF6004000C1814001C0804101C0804100C18174
:107F06004001C0804100C1814000C1814001C08064
:107F16004101C0804100C1814000C1814001C08053
:107F26004100C1814001C0804101C0804100C18142
:107F36004001C0804100C1814000C1814001C08034
:107F46004100C1814001C0804101C0804100C18122
:107F56004000C1814001C0804101C0804100C18113
:107F66004001C0804100C1814000C1814001C08004
:107F76004101C0804100C1814000C1814001C080F3
:107F86004100C1814001C0804101C0804100C181E2
:107F96004000C1814001C0804101C0804100C181D3
:107FA6004001C0804100C1814000C1814001C080C4
:107FB6004100C1814001C0804101C0804100C181B2
:107FC6004001C0804100C1814000C1814001C080A4
:107FD6004101C0804100C1814000C1814001C08093
:107FE6004100C1814001C0804101C0804100C18182
:0A7FF6004000C004000125730000E4
:020000040020DA
:10000000FF0FFF0FFF0FFF0FFF0FFF0FFF0FFF0F80
:020000040030CA
:0A000000FAFFF7FFABC7FFFFFEFF9A
:00000001FF
